:020000021000EC
:1090000000600020B5920100DD920100DF920100B6
:10901000E1920100E3920100E592010000000000EE
:10902000000000000000000000000000E7920100C6
:10903000E992010000000000EB920100ED920100B6
:10904000CDB80100EF920100EDBA010079B5010041
:1090500045AF01000000000069B90100EF92010076
:10906000EF920100EF920100EF920100EF920100F8
:10907000EF920100EF920100EF920100EF920100E8
:10908000EF920100D19C0100EF920100EF920100EC
:109090006D9D0100EF9201000DDF0100EF920100D4
:1090A000EF920100EF9201000000000000000000BC
:1090B000EF920100EF9201000000000000000000AC
:1090C00000000000000000000000000000000000A0
:1090D0000000000000000000000000000000000090
:1090E0000000000000000000000000000000000080
:1090F0000000000000000000000000000000000070
:10910000000000000000000000000000000000005F
:10911000000000000000000000000000000000004F
:10912000000000000000000000000000000000003F
:10913000000000000000000000000000000000002F
:10914000000000000000000000000000000000001F
:10915000000000000000000000000000000000000F
:1091600000000000000000000000000000000000FF
:1091700000000000000000000000000000000000EF
:1091800000000000000000000000000000000000DF
:1091900000000000000000000000000000000000CF
:1091A00000000000000000000000000000000000BF
:1091B00000000000000000000000000000000000AF
:1091C000000000000000000000000000000000009F
:1091D000000000000000000000000000000000008F
:1091E000000000000000000000000000000000007F
:1091F000000000000000000000000000000000006F
:1092000010B5054C237833B9044B13B10448AFF3C0
:1092100000800123237010BDA02500200000000065
:1092200000F1010008B5034B1BB103490348AFF33C
:10923000008008BD00000000A425002000F101000E
:10924000154B002B08BF134B9D46A3F5803A002118
:109250008B460F461348144A121A05F009F80F4BB3
:10926000002B00D098470E4B002B00D098470020D1
:10927000002104000D000D48002802D00C48AFF377
:10928000008004F0C3FF2000290003F049FA04F035
:10929000A9FF00BF000008000060002000000000DF
:1092A00000000000A0250020C42F002000000000C6
:1092B000000000000649074A074B9B1A03DD043BE8
:1092C000C858D050FBDC01F033FBFFF7B9FF0000BA
:1092D00010F2010000250020A0250020FEE7FEE797
:1092E000FEE7FEE7FEE7FEE7FEE7FEE7FEE7FEE756
:1092F0007047000007B5044B0093044A402300F078
:1093000030F803B05DF804FB11930100BD25002087
:109310002DE9F84389461446B2B10F4B0F4E032591
:10932000002743F00108224609EB0701002003F063
:10933000A5FB0744241A48B933782BB14FF47A407F
:10934000C047013D02D13570BDE8F8830123337079
:10935000002CE8D1F8E700BFB0E50100BC250020F3
:109360007047F0B595B01C46164608460D4601F00C
:1093700017FA1A9B0D93CDE90864002423460822AE
:1093800005A928460A948DF82C400C9401F025FA82
:10939000079B0293069B03939DF814308DF81140B0
:1093A00003F00302012A1DD1BDF81440059EC3F34A
:1093B000C203C4F383148DF81030A20008230EA951
:1093C000284601F00AFAC6F3952608AB0093224618
:1093D00002AB0EA9304600F00BFB284601F0E4F981
:1093E00015B0F0BD022AF8D1BDF81640C3F3C20390
:1093F000A4098DF810300827082C264628BF082617
:109400003B4632460EA9284601F0E7F9A41B08ABFB
:1094100002AA31460EA8374400F04EFB002CEBD1D7
:10942000DBE7037813F0040216D003F00303012BEB
:1094300003D0022B09D0012070470A68008802324D
:10944000C0F3831002440A60F5E70B6842880233D8
:1094500003EB92130B60EEE7104670472DE9F04FD7
:1094600087B000230446851C0DF107000F46904687
:109470008DF8073000F06CFE454806683E60D0E984
:109480000132134401339B1B824600F21C4600F557
:10949000836900F21447AB421BD30022B8F1000FDE
:1094A00070D0052363F3070264F38912DAF8001021
:1094B000DAF808309DF807000B4003330D444AF8F2
:1094C0002320CAF8005000F067FE012007B0BDE875
:1094D000F08F0121304600F0BCFE484600F0CFFE80
:1094E000384600F0CCFEDAF80400DAF808B0029052
:1094F00000EA0B0003300AEB800002A9FFF791FF9E
:10950000029B50BB0BEA03020AEB820203F1020C3E
:10951000D2680392013303EA0B0B0AEB8B0B02F0C8
:109520000302012ACDF808C0DBF80C1022D0022A71
:1095300016D08346384600F0A5FE10B1029BCAF84B
:1095400004305946304600F084FEDAE90123134422
:10955000DAF8002001339B1A9DE70BEA0300C9E704
:10956000BDF80E309B0903334FEA114B0CEB93030C
:109570000293DFE7BDF80C30C3F383134FEA114BBE
:109580006344F5E7062363F3070264F39F528DE714
:10959000D026002030B50A4C71B10A4A0A49121B84
:1095A000D20800239A4201D1002030BD31F8235067
:1095B000854202D00133F5E7034654F83300F4E75F
:1095C00080F10100F8F10100A0250020094B0139CC
:1095D00003EBC000032909D8DFE801F00A02040602
:1095E0000420704700797047407970470020704729
:1095F0000220704780F10100034BD3E90030C31A09
:1096000058425841704700BFD02600202DE9F04352
:1096100087B0FFF7F1FF0646002840F0FB807E4D43
:10962000C5F81804BFF34F8F6868AC6802902040FB
:10963000033005EB800002A9FFF7F3FE029B18B18F
:10964000D5F81824002A5FD004EA0302991C0133DC
:1096500005EB8202234005EB8303D268DB680493A9
:1096600002F00303022B0392029162D1BDF80E3087
:109670006A484FEA9318B8F1500FC14628BF4FF01F
:10968000500969F38F1309F10801ADF80E3001F0AC
:1096900058F80746002800F0A88001F081F803A9D7
:1096A00000230822384601F08EF8029924EA0106C8
:1096B0000136B600B14535D95FFA89F97EB3F6B205
:1096C000A9EB0609214003315FFA89F4B146544EF3
:1096D00005EB810108234A46384601F074F836B19B
:1096E00009F1080322463146384601F06CF8029B26
:1096F00008F1030803EB98030293D5F81834002B04
:109700004BD1D5F810445BE02A689A4204D86A60CD
:10971000304607B0BDE8F08304EA030088E740491B
:109720003446D7E72140033108234A4605EB81013F
:10973000DAE7012B59D1BDF80C303848C3F3831157
:10974000062928BF062161F3891302318900ADF88B
:109750000C3000F0F6FF0746002846D001F020F854
:109760000023082203A9384601F02DF80026BDF891
:109770000C20C2F38312B300964203F10803BCD25B
:1097800002994A1C21400331029205EB8101042217
:10979000384601F018F80136E9E7384601F004F8D8
:1097A000FFF72AFF80F00100C6B2B1E7E3685B79FA
:1097B00023B1236839461B6820469847E3681C6834
:1097C000002CF3D1384600F0EFFF0DF107008DF8C3
:1097D000074000F0BDFCD5F818340BB9029B6B6054
:1097E0009DF8070000F0D8FCDAE7D5F8104454B92A
:1097F0000C4B0D480D49C01AC008000440F002008F
:1098000000F06EF8CCE7236820469B689847E36831
:109810001C68ECE700267BE7D02600206CF10100F5
:10982000DC26002080F10100B8F10100D4E5010040
:109830002DE9F74F284C80460F46924601A9012298
:1098400018469B46D4F80890FFF708FE80B3019DA8
:109850000026A91C5E4506EB010233D100211F48FA
:1098600000F0CCFC80F310006A1C02EA090204EB51
:109870008202000405EA0903033340EA1840D0607D
:1098800014F8232068F3C50204F8232034F82320B9
:1098900066F3891224F8232054F8232067F39F22CB
:1098A00044F8232002F0F80242F0010204F82320D9
:1098B00094F820341BB1FFF7A9FE0028FBD103B0B8
:1098C000BDE8F08F09EA020204EB82025AF8263062
:1098D000D3600136BEE700BFD0260020EC2A00206E
:1098E00000231A46FFF7A4BF07B50123019201AA7E
:1098F000FFF79EFF03B05DF804FB07B5CDE9002339
:1099000002236A46FFF794FF03B05DF804FB0000F2
:1099100038B5094A0123D2F8104482F820341D4694
:1099200004B938BDE3685D71236820465B689847D9
:10993000E3681C68F4E700BFD026002010B5037A66
:10994000052B0C460FD0437A23B1084A084920461C
:1099500000F0E6FC0749204600F0E2FC2046BDE8A6
:10996000104000F0D2BC002AF8D0F3E71FE6010057
:1099700024E6010044E6010073B5C38804460D46A1
:1099800033B1144A00921449144A284600F0C8FC26
:10999000217A05291CD0637A4BB1A088FFF716FE07
:1099A0000F4B104953F82020284600F0B9FC227ACA
:1099B0000D4BA08853F822600021FFF7EBFD0B4907
:1099C00003463246284602B0BDE8704000F0A8BC0D
:1099D00002B070BD1FE601002FE6010027E601007E
:1099E000ECE5010024E6010054E6010047E6010031
:1099F0002DE9F04385B01F460C9D002306460C461A
:109A0000904695F80C902B7329463846FFF7B4FF23
:109A1000B8F1060F09D8DFE808F00412181F283340
:109A200040003146284600F07BFC0022294638469B
:109A3000FFF784FF85F80C9005B0BDE8F08322683D
:109A40003146284600F06CFCEFE7D4E900233146AC
:109A5000284600F065FCE8E7A36800933146D4E9A6
:109A60000023284600F05CFCDFE7E3680193A3686D
:109A700000933146D4E90023284600F051FCD4E796
:109A800023690293E3680193A36800933146D4E904
:109A90000023284600F044FCC7E763690393236969
:109AA0000293E3680193A36800933146D4E900234D
:109AB000284600F035FCB8E708292DE9F84F804624
:109AC0000E4617461C463BD8002593F80C901D7394
:109AD00019461046FFF750FFDFF88CA0DFF88CB076
:109AE000AE422FD918F805205946204600F018FC40
:109AF0000135082DF4D11949194DDFF874B020460D
:109B000000F00EFC4FF0000A564522D918F80A2042
:109B10007E2A1CD812F80B1011F0970F08BF2E22C6
:109B20001049204600F0FCFB0AF1010ABAF1080FC7
:109B3000EAD1012221463846FFF700FF84F80C9055
:109B4000BDE8F88F5146204600F0EAFBD0E72E2210
:109B5000E6E72946204600F0E3FBE5E71AE60100C8
:109B600018E601001CE6010016E6010010E60100FF
:109B7000F9EF01001FB50021039001AA44F2010092
:109B8000CDE9011100F004F805B05DF804FB000018
:109B900010B572B6FFF7BCFEFFF738FD0028FBD109
:109BA000104B114C1149E41AE408240444F001005C
:109BB000FFF796FE0E4B1B68DB0700D500BE0D4974
:109BC00044F00200FFF78CFEBFF34F8F0A490B4BA6
:109BD000CA6802F4E0621343CB60BFF34F8F00BF4B
:109BE000FDE700BF80F10100B8F10100B3E601001C
:109BF000F0ED00E0BFE6010000ED00E00400FA0532
:109C0000094A537891780133DBB2994208BF0023A7
:109C1000117899421FBF03705078182303FB00206E
:109C200014BF043000207047F42A002073B50546A5
:109C300000240DF107000E468DF8074000F088FA69
:109C40000DF10600FFF7DCFF90B10670094B9DF89F
:109C5000062045605A709DF8070000F09DFA24B96F
:109C6000054B4FF48012C3F80021204602B070BDAE
:109C70000424F0E7F42A002000E100E0024B4FF456
:109C80003C6043F001031847D0E6010038B50C4BA7
:109C90000C4C4FF40032C3F8802001254FF4803380
:109CA000C4F84833C4F808336560FFF7E7FF064B94
:109CB000A56000241C60FFF7E1FF044B1C7038BD59
:109CC00000E100E000100140102C0020012C0020D9
:109CD000F8B51F491F4B0025C1F84051C1F8445148
:109CE000C1F84851C1F84C51C1F80051C1F80451B4
:109CF0001B684BB3D1F8044517490968641A24F06E
:109D00007F442F461A68A24209D8A41A15441A7C27
:109D1000DE691AB11F74D3E905209047AEB90F4A26
:109D20000F4B11781B788B4205D10133DBB2022B2C
:109D300008BF0023137012780A4B43F822500A4BD5
:109D40004FF48012C3F80021F8BD3346DAE700BFB4
:109D500000100140142C0020102C00200D2C00209D
:109D60000C2C0020042C002000E100E02DE9F04F35
:109D7000A04AA14913780978A04D994285B03CD0FA
:109D80000133DBB2022B08BF002313709C49127809
:109D90009C4B0F6853F822003B1823F07F430022AE
:109DA0000B602B6816461446944613B942B12B60DB
:109DB00006E0196881420ED902B12B60091A1960B8
:109DC0004FF001082B68DFF844A201930027BEB9C9
:109DD000DFF840B266E0401A0C44D968C3F800C00E
:109DE000D3F81CE031B13A1922F07F42C3E90121D6
:109DF000DE611E4601227346D7E70026B046E1E742
:109E00003446F6697E4A63681268DFF80CC2A068BF
:109E1000991A21F07F41614500F2A580014421603B
:109E2000012222742A680023C4E90133E361002A75
:109E300040F0A2802C60CAE75A1C9BF80210D2B2F4
:109E400091428BF8002004BF00228BF800201822DA
:109E500002FB03B31A799C68022A1CD0032A12D091
:109E6000012A1FD1207CE8B9D96861601A69A26013
:109E70005A69E2609B69A361634B1B78002B18BF92
:109E800001466160BEE700222B681146002B66D1B7
:109E900042B12B6006E029680A468946002A59D15A
:109EA000002323749BF800309BF801209A42C3D111
:109EB0002B682FB9019A9A4202D1B8F1000F43D012
:109EC000002B73D0D3F800A0504D4D4BD5F804753E
:109ED0001C68DFF848813E1B98F8003026F07F466A
:109EE00003369BB94FF48033C5F84433C5F80433C7
:109EF000474B4FF400324FF00109C3F880211A603C
:109F0000C5F80090FFF7BAFE88F80090B2452CBF64
:109F10005444A41924F07F44C5F84045D5F80435CD
:109F2000DB1B23F07F43E41B033324F07F44A34275
:109F30000AD9D5F80435C5F84035FFF79FFE344BF4
:109F40004FF40032C3F800212F4B00221A7005B0E5
:109F5000BDE8F08F94422CD09146D2699EE71974E7
:109F60000122DB6992E7D31A23F07F43834234BF97
:109F7000C31A0023236053E721681368994213D85A
:109F8000591A1160E26155E7091AD8691A4638B1C1
:109F9000034618688842F7D3401A186018461346DB
:109FA0002160E061DC6112E71346F2E7FFF76EFE25
:109FB000CAE74C4511D1CB692B6073B9DFF840E09B
:109FC0000120CDE90212CAF80800CEF800300E4B8D
:109FD0001870FFF753FEDDE902121368D269C9F861
:109FE0001C2012B11068034413602B68994218BFFB
:109FF000012755E70C2C00200D2C0020142C0020EC
:10A00000102C0020042C0020002C00200010014007
:10A0100000E100E0F42A0020FEFF7F00012C002078
:10A0200008B5FFF733FE104B00200B2218809A7002
:10A030000E4B18600E4B18700E4B18700E4B4FF4F1
:10A040008012C021C3F8802183F814131A6002F132
:10A050008042A2F56F22C2F8080583F81113074B5E
:10A06000D2F804251A6008BDF42A0020142C002020
:10A070000C2C00200D2C002000E100E0102C002012
:10A08000074B9B784BB132B128B10368187C20B9DB
:10A0900059745A617047072070470820704700BF05
:10A0A000F42A00202DE9F7431E4FBB7805460E46E3
:10A0B0009046A3B398B304292FD943697BB3437C5B
:10A0C0000024012B0DF107000CBF8946A1468DF835
:10A0D000074000F03DF80DF10600FFF791FDD0B10B
:10A0E00001230370104B4560D3F80435C0E9049890
:10A0F000C0E902369DF806307B709DF8070000F03D
:10A100004BF824B9094B4FF48012C3F800212046C4
:10A1100003B0BDE8F0830424EFE70724F7E7082441
:10A12000F5E700BFF42A00200010014000E100E044
:10A13000064A92783AB130B1426922B100220274E3
:10A140000221FFF773BD0820704700BFF42A0020EA
:10A1500070B5EFF3108672B60C4A946801239CB96F
:10A1600093600B4B0B4DD3F8801029401160C3F85E
:10A170008050D3F8841051604FF0FF32C3F8842030
:10A18000047006B962B670BD0370FAE7402F002074
:10A1900000E100E0FC06FFBD10B5084B9A685AB11B
:10A1A00050B9EFF3108172B6054A1C6814605C6800
:10A1B0005460986001B962B610BD00BF402F002006
:10A1C00000E100E001F01F024B090121914000EB8A
:10A1D000830000F01DB801F01F0301229A404B09D3
:10A1E00000EB8300D14300F029B84B0901F01F01B7
:10A1F00050F82300C84000F00100704750E8002FDD
:10A200000B4640E8003C9CF0000FF7D11046704729
:10A2100050E8003F43EA010240E8002C9CF0000FA8
:10A22000F6D11046704750E8002F02EA010340E8DB
:10A23000003C9CF0000FF6D11046704750E8003FFC
:10A2400003EA010240E8002C9CF0000FF6D1104612
:10A25000704750E8003F03EB010240E8002C9CF0FF
:10A26000000FF6D11046704750E8003FA3EB010203
:10A2700040E8002C9CF0000FF6D1104670470121F9
:10A28000FFF7C6BF0021FFF7CEBF37B50546002454
:10A290000DF107008DF80740FFF75AFF2A6869683B
:10A2A00013688B4210D9591E116013F8014C2A8A89
:10A2B000EB6802FB04342A68AB6811685B1A1179F9
:10A2C000DBB2994238BF13719DF80700FFF764FFB6
:10A2D000204603B030BD37B5054600230DF1070019
:10A2E0000C468DF80730FFF733FF2A681368591CB6
:10A2F0001160E968641A298AB4FBF1F41C709DF8B6
:10A300000700FFF749FF03B030BD10B5826804466F
:10A310002AB143690168006998470023A36010BD12
:10A320000EB403B5039921B104AB01AA019300F067
:10A3300075F802B05DF804EB03B070470A2938B530
:10A3400004460D4602D10D21FFF7F8FFA3682268ED
:10A35000591CA160D554D4E901329A4204D3204655
:10A36000BDE83840FFF7D1BF38BD00002DE9F84FF8
:10A370009946DDE90A431746824688460A46012681
:10A38000BA420FD24E4538BF4E4613F0010B01D1F1
:10A3900064B900240125B9F1010F1AD909F1FF3977
:10A3A0007D43F8E7B2FBF7F20136E9E79B070ED5EC
:10A3B000B9F1000F0CBF30252025A642EAD2013C9E
:10A3C00029465046FFF7BAFF002CF6D1E1E72025D9
:10A3D000F3E7B8FBF5F39F42E2D9DFF83C90B8FB16
:10A3E000F5F3504619F8031005FB1388FFF7A6FF95
:10A3F000B5FBF7F3BD4207D2BBF1000F02D00CB1A1
:10A40000A64203D3BDE8F88F1D46E8E72021504659
:10A41000013CFFF793FFF2E7D6E601002DE9F74F85
:10A42000054617468846002900F0318118F8011BBF
:10A4300049B92B7B002B00F02A81284603B0BDE8E8
:10A44000F04FFFF762BF252940F0C080002698F842
:10A4500000302D2B424608F1010823D0302B24D0A8
:10A460002B2B25D000242A2B02F1010123D13B689C
:10A470001A1D3A601B680A461C4413782E2B26D1FD
:10A4800001324FF0000A104610F8011BA1F1300C08
:10A49000BCF1090F1DD80A2303FB0A13A3F1300AEC
:10A4A0000246F0E746F00106D1E746F00206CEE7A5
:10A4B00046F00406CBE711F8013CA3F1300009286F
:10A4C000DBD80A2202FB0434303C0A46CBE74FF0CB
:10A4D000000A12F8011B01F0FB0068289046F8D032
:10A4E00069290ED04AD8582964D006D825296DD0BC
:10A4F00098F80030002B99D19BE7632962D064293A
:10A50000F6D13A68111D3960D2F8009089EAE972F3
:10A51000A2EBE9724FF0010B092A5BDCD34538BF8F
:10A52000D3462CB1B9F1000F01DB710700D5013C16
:10A53000B20702D5BAF1000F04D0F30702D4002C01
:10A540004ED10024B9F1000F52DAC9F100092D21D2
:10A550002846FFF7F3FE06F00302022A05D1BAF1FE
:10A56000000F02D1002C47D10024CDE9004653460C
:10A570000A2249462846FFF7F9FEB9E773294CD06D
:10A5800014D87029B4D13B681A1D3A60302128468E
:10A590001C68FFF7D3FE78212846FFF7CFFE002284
:10A5A0000823CDE9003221461022E3E775292BD09C
:10A5B00078299DD139680A1D3A60CDE90046534695
:10A5C000102228E03B681A1D3A6019782846FFF7E8
:10A5D000B5FE8DE70A230BF1010BB2FBF3F29BE70B
:10A5E000A345AFD220212846013CFFF7A7FEA6E7EE
:10A5F0007007B0D52B21ABE7A345B6D23021284652
:10A60000013CFFF79BFEADE73968CDE900460A1D26
:10A610003A6053460A220968ACE73B681A1D3A6063
:10A62000F107D3F8009020D4B9F1000F25D04846A7
:10A6300003F026FE0646B44200D9C4B909F1FF3939
:10A6400020E028460136FFF779FE19F806100029A8
:10A65000F7D1A642BFF44CAF002C3FF449AF202104
:10A660002846013CFFF76AFEF3E70026EDE72021CC
:10A670002846013CFFF762FEDDE74E46DBE7284651
:10A68000FFF75CFE19F8011F0029F8D130E703B08D
:10A69000BDE8F08F2DE9F047B0F806904479D2F884
:10A6A00000A09DF8208009FB04F4043C06460AEB58
:10A6B0000300A0420F4688BFA4EB030A191DC2F88D
:10A6C00000A0B1FBF9F509FB15114DB9A9EB010487
:10A6D000544528BF5446BAF1000F04D1BDE8F087B5
:10A6E0003668013DF1E704317B1970182246B8F154
:10A6F000000F0ED001461846AAEB040A03F0AAFD8B
:10A70000D145254436684C464FF0000128BF5446D9
:10A71000E1E71946F0E7F8B546790146721E0546AD
:10A72000002393422D6803D30024A64202D8F8BD2B
:10A730000133F6E70F682846FFF7CDFD01343946AF
:10A74000F3E72DE9F843CD1C068A0746FFF79DFD88
:10A75000043E35440446B5FBF6F5F0B14FF4807382
:10A76000EDB28380C680013D076081464FF000084E
:10A77000A84512D23846FFF788FD064648B16379EE
:10A780000133637108F10108C9F8000007608146D0
:10A79000EEE72046FFF7BFFF34462046BDE8F883CA
:10A7A00001210430FFF755BD10B5012104460430E6
:10A7B000FFF75AFD10F0FF0F04D12046BDE810400E
:10A7C000FFF7A9BF10BD1FB503920022009203AA94
:10A7D000FFF760FF05B05DF804FB1FB5039201228F
:10A7E000009203AAFFF756FF05B05DF804FB016075
:10A7F0000B6843604A68934204BF0023436070477C
:10A80000436843B1026891680B44436052689342C5
:10A8100004BF00234360704710B50D49A1F5947241
:10A82000914201D800200FE08B1ADB1003EBD373A9
:10A830005B1002EBC30452F83330834205D802D2D6
:10A8400004F10802ECE7606810BD2146E8E700BFAC
:10A850002CE8010008B5FFF7DFFF024B002808BF16
:10A86000184608BDEFE60100094B1B78062B0CD1FA
:10A87000084B1B681A0708D1074B186800F0F00056
:10A88000A0F130035842584170470020704700BF84
:10A89000E00F00F0E40F00F0E80F00F00F4B1B6832
:10A8A0000A2B03D10E4B1B68012B14D90D4B1B78BF
:10A8B000062B10D10C4B1B681A070CD10B4B1868D8
:10A8C00000F0F003302B06D000F0E000A0F14003D0
:10A8D0005842584170470120704700BF30010010B6
:10A8E00034010010E00F00F0E40F00F0E80F00F07A
:10A8F0000C4B1B78062B10D10B4B1B681A070CD185
:10A900000A4B186800F0F003302B08D000F0E0008C
:10A91000A0F1400358425841704700207047012081
:10A92000704700BFE00F00F0E40F00F0E80F00F008
:10A9300008B5FFF7DDFF28B1814B824A1B68C3F3DE
:10A9400004231360FFF790FF10B17F4B7F4A1A601A
:10A95000FFF7A4FF28B17E4B7E4A1B68C3F3423346
:10A960001360FFF781FF20B17B4AD36823F0807327
:10A97000D360FFF793FF40B14FF080430022C3F84C
:10A980000C21C3F81021C3F83825FFF76DFF10B173
:10A99000724B03221A60FFF767FF40B1704B05222C
:10A9A0001A6001229A6700229A603F225A606D4B1A
:10A9B0001B680A2B03D16C4B1B68012B0DD96B4B09
:10A9C0001B78062B09D16A4B1B68190705D1694B07
:10A9D0001B6803F0F003502B46D14FF08052664BBA
:10A9E000D2F80414C3F82015D2F80814C3F82415BB
:10A9F000D2F80C14C3F82815D2F81014C3F82C158B
:10AA0000D2F81414C3F83015D2F81814C3F834155A
:10AA1000D2F81C14C3F84015D2F82014C3F844151A
:10AA2000D2F82414C3F84815D2F82814C3F84C15EA
:10AA3000D2F82C14C3F85015D2F83014C3F85415BA
:10AA4000D2F83414C3F86015D2F83814C3F864157A
:10AA5000D2F83C14C3F86815D2F84014C3F86C154A
:10AA6000D2F84424C3F870253E4B1B680A2B06D14C
:10AA70003D4B1B681BB9414BFB22C3F81825FFF760
:10AA800037FF28B13E4B3F4A1B6803F04F0313606A
:10AA9000FFF704FF48B14FF08043D3F80024D207FA
:10AAA00044BF6FF00102C3F800242E4B1B68062B35
:10AAB00008D12D4B1B68062B01BF334A136843F4A2
:10AAC000806313604FF01023D3F80022002A03DBC9
:10AAD000D3F80432002B2FDA2C4B0122C3F80425C3
:10AAE000D3F80024002AFBD04FF010221521C2F821
:10AAF0000012D3F80024002AFBD04FF010231522B7
:10AB0000C3F80422214B1A46D3F800140029FBD0C5
:10AB10000021C3F80415D2F80034002BFBD0BFF39A
:10AB20004F8F1B491B4BCA6802F4E0621343CB6092
:10AB3000BFF34F8F00BFFDE7174B184A1A6008BDDF
:10AB4000240300104035014074C007400DF0ADBA39
:10AB5000440200103C050040F0ED00E0A00500407C
:10AB6000105600403001001034010010E00F00F0DA
:10AB7000E40F00F0E80F00F000C0004000F00040DB
:10AB800058020010E40E00403C17004000E0014075
:10AB900000ED00E00400FA05082500200090D00335
:10ABA000054A4FF0A043105CD3F8043523FA00F0B7
:10ABB000C04300F001007047E6EB0100044B1A5C53
:10ABC000012393404FF0A042C2F80C35704700BFFC
:10ABD000E6EB0100044B1A5C012393404FF0A042C6
:10ABE000C2F80835704700BFE6EB010008B5002049
:10ABF000FFF7F0FF0120FFF7EDFF0220FFF7EAFF6C
:10AC00000320BDE80840FFF7E5BF08B50020FFF7C7
:10AC1000D5FF0120FFF7D2FF0220FFF7CFFF03206F
:10AC2000BDE80840FFF7CABF074A4FF0A041105CDB
:10AC3000D1F804350122824022EA03001340C1F812
:10AC40000805C1F80C357047E6EB01007FB50378C5
:10AC50008DF804304368029383688DF80C30C36824
:10AC6000049303698DF81430054A064B01A853F884
:10AC7000213052F82110984707B05DF804FB00BF5F
:10AC8000182C00201C2C0020F0B50646944616F81F
:10AC9000047B134A42F827C0124A42F82730124B6D
:10ACA0000D460FCB85B06C4684E80F002B680093EF
:10ACB0002B798DF805306B798DF80630AB680293EF
:10ACC000BCF1000FAB89ADF80C30084A3B4608BF19
:10ACD00000222146304600F061F905B0F0BD00BF0A
:10ACE0001C2C0020182C0020ECEB01004DAC0100C6
:10ACF0001FB503788DF800308388ADF80430836881
:10AD00008DF80630C3688DF80730036902934369F4
:10AD10000393054A054B684653F8213052F8211039
:10AD2000984705B05DF804FB202C0020242C00205F
:10AD3000024B4FF4807043F00103184700EC010010
:10AD40002DE9F04791460778354A42F82790354A71
:10AD500042F827304B7B80460C4693B30B684FF08C
:10AD6000A04503F5E07340F20C6245F823204B68E0
:10AD700003F5E073012645F823200B6806FA03F378
:10AD8000C5F808354B6806FA03F3C5F808350B68B3
:10AD900003F5E07340F20D6245F823204B6803F59C
:10ADA000E0734FF0000A45F82320FFF7C1FFD5F804
:10ADB0001025636822FA03F3DB070FD5BAF1000F01
:10ADC0001FD1B9F1000F3B46174A214608F1040094
:10ADD00008BF0022BDE8F04700F02EBC236806FA49
:10ADE00003F3C5F80C35FFF7A3FF236806FA03F356
:10ADF000C5F808350AF1010AFFF79AFFBAF1090F01
:10AE0000D5D1636801254FF0A04605FA03F3C6F8D3
:10AE10000C35FFF78DFF63689D40C6F80855D0E7F5
:10AE2000242C0020202C0020F1AC010038B5074C68
:10AE3000051E04F1080318BF1C4623682BB11A68CD
:10AE400022605B6828469847F7E738BD302C002021
:10AE500020B9054B01225A70FFF7E8BF012802D143
:10AE6000014A9070F8E77047282C002020B9034B66
:10AE700001225A70FFF7DABF704700BF282C00206C
:10AE800038B50B4C237883B90A486360A36023610B
:10AE9000E36000F0F1FC054603F01EF808B900F08D
:10AEA000F7FC01232370284638BD8525FBE700BF4A
:10AEB000282C002051AE010037B50B4C00230DF1BA
:10AEC00007008DF80730FFF743F9E368013BE360C3
:10AED000E56815B900F0EEFCA5709DF80700FFF7D6
:10AEE0005BF903B030BD00BF282C0020012813B54A
:10AEF00009D018B103281CD002B010BD0F4B01229D
:10AF0000C3F88020F8E70E4C00230DF107008DF800
:10AF10000730FFF71DF923780BB9FFF7B1FFE3689E
:10AF20009DF807000133E3600123A370FFF734F9B4
:10AF3000E2E700F0ADFCFFF7BFFFDDE700E100E076
:10AF4000282C00204FF0402382B0D3F81831E3B111
:10AF50000F4B00221A601B680193019B0D4BD97F98
:10AF6000FF2907D0987F01228A404FF0A04148B1C5
:10AF7000C1F80C2500225A771A72D3E9002106483D
:10AF800002B01047C1F80825F4E702B0704700BFCF
:10AF9000184100403C2C0020442C00202DE9F74FA4
:10AFA00006796D4F01934FF0240A0AFB06FA07EB6E
:10AFB0000A0B91469BF81C2080460C46002A40F064
:10AFC000C68005686549284600F096FD002840F0D7
:10AFD000C08047F80A90019BCBF80430237B21788E
:10AFE000012B4FF0A0424FF0010303FA01F394BF8D
:10AFF000C2F80C35C2F8083523784FF0A04103F5AC
:10B00000E073012241F823206378FF2B1FBF9A4091
:10B01000C1F80C2503F5E0724FF0030C18BF41F89E
:10B0200022C0A27808BF4FF0FF33FF2A1FBF02F5EE
:10B03000E07C4FF0A0414FF0040E41F82CE04FF0BF
:10B04000240C0CFB067CA1788CF8201094F803E00B
:10B050008CF81FE008BF4FF0FF32BEF1FF0F19D090
:10B06000012101FA0EF194F804E04FF0A04CBEF17A
:10B07000000F63D0CCF80C15E17801F5E0714FF0CA
:10B08000030E4CF821E0242101FB067194F804C062
:10B0900081F81EC02178C5F80815C5F80C35C5F82B
:10B0A0001025A368C5F82435637B227B003318BFC5
:10B0B0000123022A45D0032A46D0012A01D143F0B8
:10B0C0000203C5F85435A379C5F8C035B9F1000FAE
:10B0D00002D04023C5F804330723C5F80035B9F181
:10B0E000000F21D0D8F800106279090B4BB2002B69
:10B0F000AEBF03F1604301F00F01194B4FEA42125A
:10B10000D2B2AABF03F561435A5483F80023D8F89A
:10B1100000301B0B5AB2012103F01F0301FA03F3A5
:10B120005209104941F82230242303FB06760023FC
:10B1300073770123337703B0BDE8F08FCCF808159F
:10B140009AE743F00403BCE743F00603B9E708209D
:10B15000F1E71120EFE700BF3C2C002045AF0100D4
:10B1600014ED00E000E100E02DE9F3410679474FDE
:10B17000242373431446FA180D46517F864600294E
:10B1800040F08280FB5823B114F0140F04BF012358
:10B19000537795E80F004FF0240C0CFB067C0CF164
:10B1A0000C0888E80F009CF81F20FF2A08D09CF8A4
:10B1B0001E10012393404FF0A042C1B1C2F80835E0
:10B1C0002A6822B102F06043B3F1005F06D1AB6898
:10B1D00083B103F06043B3F1005F0BD0242303FB82
:10B1E000067600237377102002B0BDE8F081C2F824
:10B1F0000C35E5E7DEF800306968C3F84425C3F88C
:10B200004815D5E90212C3F83415C3F838250022D1
:10B21000C3F81821D3F818210192019A14F0010201
:10B2200018BF0122C3F8502514F0020218BF0122F2
:10B23000C3F8402522075CBF01221A612422724311
:10B24000BA58B2B9D3F81821002AFBD0242303FB43
:10B250000676F27FFF2A07D0B07F012393404FF09C
:10B26000A04218B1C2F80C350020BDE7C2F808357D
:10B27000BAE714F004004FF0400202D0C3F80823EC
:10B28000F2E7C3F80423AFE71120ADE73C2C002020
:10B290000023435082B043580193019B02B0704792
:10B2A0002DE9F0470D78089E9DF824A004460F462E
:10B2B0009946002D5ED1D0F82431D2F800803BB100
:10B2C0004FF49271FFF7E4FF012363613B7017E0D5
:10B2D000D0F81C3153B34FF48E71FFF7D9FFD0F87B
:10B2E00024311BB14FF492712046EBE713689E4264
:10B2F00012D919F80330C0F81C35136801331360F4
:10B30000B04535D1D4F8043193B34FF4827120465F
:10B31000FFF7BEFF002504E00123BAF1000F03D0C0
:10B32000C3612846BDE8F0874361E9E7D0F80831FA
:10B33000002BE5D04FF48471FFF7AAFFD0F8243139
:10B34000002BCFD113689E42DAD9D0F8181509F82E
:10B350000310136801331360721E934205D1022358
:10B36000C0F8003201232362CAE79E42FAD1C7E740
:10B370000125D6E74FF49271FFF78AFF4FF48E71E3
:10B38000FFF786FF4FF48471FFF782FFBAE70000F2
:10B390002DE9FF470C4605461F4620463B4B0393CD
:10B3A0004FF4827116469DF83080FFF771FF4FF41D
:10B3B0009271FFF76DFF4FF48E71FFF769FF4FF445
:10B3C0008471FFF765FF0023C4F800326B6385F8D2
:10B3D0002E3001232362A3606A6B97421DD9B35CB0
:10B3E000C4F81C356B6B01336B632B68E3B905F153
:10B3F000340A05F12E09039B002B1FDC95F82E3033
:10B4000053BB0020039B002B15DC0023C4F8003540
:10B410000523C4F8003503200DE0B8F1000F01D07A
:10B42000E361E2E76361E0E740F28623AB60AB688B
:10B43000C4F80433002004B0BDE8F087CDE90078FB
:10B440003346524649462046FFF72AFF0028D5D00A
:10B45000039B013B0393CEE7D4F8C434C4F8C4344F
:10B46000002BCED013F0010F14BF4FF40240032085
:10B4700048F2012213F0020F18BF104613F0040F18
:10B4800048F2022318BF1846BCE700BFA08601009F
:10B490002DE9FF470C4605461F462046354B0393D2
:10B4A0004FF482719246FFF7F3FE4FF49271FFF76B
:10B4B000EFFE4FF48E71FFF7EBFE4FF48471FFF750
:10B4C000E7FE0023012F6B6385F82E3008BF0222B0
:10B4D0004FF001030CBFC4F80022C4F8003223620D
:10B4E00023602E68AEB905F1340905F12E08039BDF
:10B4F000002B18DC95F82E301BBB0020039B002B83
:10B500000EDC0023C4F800350523C4F80035032001
:10B5100006E040F28623AB60AB68C4F80433002039
:10B5200004B0BDE8F087CDE9007653464A4641466F
:10B530002046FFF7B5FE0028DCD0039B013B0393B8
:10B54000D5E7D4F8C434C4F8C434002BD5D013F0F4
:10B55000010F14BF4FF40240032048F2012213F000
:10B56000020F18BF104613F0040F48F2022318BF51
:10B570001846C3E7A0860100F0B52C4C2C4894F87F
:10B580002C3089B004F134020193A36A0093636AFA
:10B5900004F12E01FFF784FE2746E0B994F82EC08F
:10B5A000266ABCF1000F1DD1217B8B1E012B19D8FF
:10B5B000626AA3699A4215D1E26963696262C6F35D
:10B5C00040160329A36284F82C6006D1009618491E
:10B5D0002046FFF7DDFE09B0F0BD15492046FFF714
:10B5E00057FFF8E7134D0FCD03AC0FC42B68236052
:10B5F000BCF1000F17D00E4AD2F8C434C2F8C434DC
:10B6000099070CD501238DF80830002387F82F30D7
:10B610007307E0D4D7E9003102A89847DBE75A075F
:10B62000F3D50223EFE78DF808C0EEE7602C002089
:10B63000003000406C2C00202DE9F84F0679344D85
:10B640004FF03C0909FB06F905EB09089B4698F801
:10B650002D3007460C469246002B55D12D490068E7
:10B6600000F04AFA002851D145F809A0C8F80800AE
:10B67000C8F804B088F82F0088F83000637B88F899
:10B68000383023684FF0A04203F5E07340F20C61BC
:10B6900042F82310636803F5E07342F82310D4E9FD
:10B6A00000213B68C3F80825C3F80C15A268C3F84D
:10B6B0002425BAF1000F1FD03968227B090B4BB249
:10B6C000002BAEBF03F1604301F00F01124B4FEAB4
:10B6D0004212D2B2AABF03F561435A5483F8002341
:10B6E0003B681B0B5AB2012103F01F0301FA03F35D
:10B6F00052090A4941F822303C2303FB0655012335
:10B7000085F82D30BDE8F88F0820FBE71120F9E718
:10B71000602C002079B5010014ED00E000E100E0AC
:10B72000026803790521C2F80015044A3C2101FB97
:10B730000323022283F82D20704700BF602C0020D5
:10B740002DE9F74F2F4F90F80480D0F800E02E4BF2
:10B75000CEF808333C2404FB0874C8EB081994F8AD
:10B760002F300D46164607EB890903F0FF0B33B166
:10B77000A368CEF80433112003B0BDE8F08F82F047
:10B780000403C3F3800384F82F3022628A46BAE8A8
:10B790000F0004F10C0CACE80F00DAF80030CCF824
:10B7A00000306B68A362EB6863626B78CEF8883513
:10B7B0002B78012B1CD0CBB9C6F340163C2303FBDE
:10B7C0000873714683F82C606B680096EA684846F7
:10B7D000FFF7DEFD3C2303FB08F807EB080257F8F0
:10B7E0000830002BC8D182F82F30C5E70126E5E7E5
:10B7F00084F82CB06B68EA6871464846FFF748FE4B
:10B80000E8E700BF602C002086420400F0B587B056
:10B8100004460F4615460021142201A81E4602F0D8
:10B8200027FD9DF830308DF80570002B14BF2022C5
:10B83000002201A9204602960495FFF781FF07B078
:10B84000F0BDF0B587B004460F4615460021122220
:10B850000DF106001E4602F00BFD0123002201A996
:10B8600020468DF804308DF8057002960495FFF798
:10B8700067FF07B0F0BD0000044A137923B9012126
:10B880001060918018467047852070479C2C0020DE
:10B89000074B1A68D2075FBFC02283F8002301223A
:10B8A0001A604FF080430122C3F81825704700BF8B
:10B8B00000E100E0044B01221A604FF08042D2F810
:10B8C0001834DB03FBD470470C00004007B5154B60
:10B8D0001A687AB100221A601B680093009B4FF02F
:10B8E00080430122C3F808230F4B587910B95A71CD
:10B8F0001B6898470D4B1A6882B100221A601B68BA
:10B900000193019B4FF080430222C3F80823064BAA
:10B910001B68012003B05DF804EB184703B05DF825
:10B9200004FB00BF000100409C2C002004010040EB
:10B9300000F1804000F5C040002382B0036003683E
:10B940000193019B02B07047800000F1A040D0F845
:10B95000003723F44033C0F80037D0F8003743EA0B
:10B960000141C0F8001770472DE9F04F85B0002461
:10B970005A4D01944FF48072012102F1804303F586
:10B98000C04390B21B68012B06D1D5F804330B429B
:10B9900002D0FFF7CDFF0C430432B2F5907F4FEA9F
:10B9A0004101EAD14E4B1B68012B0AD14FF4BE7006
:10B9B000FFF7BEFF4FF0A04344F00044D3F810352A
:10B9C000019314F0FF0F1AD0464F00250126344290
:10B9D00010D0AB0003F1804303F5C043D3F810054A
:10B9E000D3F8101557F8253023B1C1F30141C0F346
:10B9F000042098470135082D4FEA4606E7D1002C70
:10BA000064DA00224FF0FF33CDE90223354D0127E0
:10BA10004FF0000A344E54464FF0A04816F9012B5F
:10BA2000531C46D0D2B222F0C0094FEAD90104A873
:10BA3000084402F0070310F804CC07FA03F31CEAE9
:10BA4000030F36D005EB090C92099CF930C055F86C
:10BA50002CB0BBF1000F0AD1032A2AD10DF1080E38
:10BA60001EF801C04CEA030C0EF801C001E0032AE5
:10BA7000F4D009F5E07110F80C0C58F821101842B8
:10BA8000C1F3014105D0022913D1032A0BD111467C
:10BA900004E003290DD1032A05D102214846FFF70E
:10BAA00053FF0134E4B2BBF1000F02D01146484607
:10BAB000D8470AF1010ABAF1040FAFD134B14FF0FF
:10BAC000A043019AD3F81035934202D105B0BDE8E6
:10BAD000F08F0193029B03939AE700BF0060004040
:10BAE0007C610040A42C0020F42C0020014B1B683A
:10BAF000184700BF002D00200E4B984237B50D4669
:10BB000002D0002003B030BD00230DF107008DF8F6
:10BB10000730FEF71DFB084B1C7914B901221D608C
:10BB20001A719DF80700FEF737FB002CE9D01120B1
:10BB3000E8E700BF00200040002D00200023435014
:10BB400082B043580193019B02B070470A4610B57A
:10BB50004FF48E71FFF7F2FF136A9168C95C136AA4
:10BB600001331362C0F81C1510BD10B58B690A466D
:10BB70004FF4847123B9FFF7E1FFD0F8183510BDF9
:10BB8000FFF7DCFF536AD168D0F81805C854536A30
:10BB900001335362F3E700001FB501238DF8003035
:10BBA000044BCDE90110D3E900126846904705B077
:10BBB0005DF804FB082D002030B54D4AD2F804335F
:10BBC00013F4007F85B015464FD0D2F82431002BF6
:10BBD0004BD04FF492711046FFF7B0FF4FF4017352
:10BBE000C2F80833434B93F8291009B90121516079
:10BBF0003F4902228DF80020D1F88024C1F880242A
:10BC000003929A690292DA6801920022C3E906223D
:10BC10006846D3E9001290473548D0F81C315BB133
:10BC200034490A6A4B699A420A464CD291F8283044
:10BC3000002B48D1FFF78AFF2D4AD2F8443193B147
:10BC40004FF4A2711046FFF779FF2A4B93F82910A1
:10BC500009B1012111609A692AB100229A61586ADA
:10BC6000D968FFF799FF05B030BDD5F804335B07FD
:10BC7000D2D5D5F80831002BCED01E4C1C48214619
:10BC8000FFF773FF636AA2699A422346C4D1E2694F
:10BC900052B12369E168E3600023606AA261E36155
:10BCA0006362FFF779FFB7E794F829200AB9012208
:10BCB0006A600F4A4FF40171C2F8081300229A61BA
:10BCC000586AD968EDE74FF48E710948FFF736FFDF
:10BCD00051690029B0D00023029191688DF800309D
:10BCE000019153616846D2E900139847A4E700BF69
:10BCF00000200040082D00202DE9F843594F067917
:10BD000091462C2202FB0672054692F82A200C4628
:10BD1000002A40F0A08054490068FFF7EDFE8046FD
:10BD2000002840F09B802268501C0BD001239340D8
:10BD30004FF0A0420321C2F80835236803F5E073F1
:10BD400042F823106368591C1FBF03F5E0734FF0DE
:10BD5000A042002142F823102B68A269C3F82425D1
:10BD6000217D637D2A680B43C2F86C35D4E900124B
:10BD70002B68C3F81425C3F80C15237D012B1FD1A4
:10BD8000A3685A1C1FBF4FF0A04203F5E0730021C7
:10BD900042F82310E268531C0BD0012393404FF06C
:10BDA000A0420321C2F80835E36803F5E07342F8C6
:10BDB0002310D4E902122B68C3F80825C3F8101524
:10BDC0002C237343FA18C2F804902269FA50B9F18F
:10BDD000000F2DD04FF48E712868227FFFF7AEFE42
:10BDE0004FF4A2712868FFF7A9FE2B681F49C3F81A
:10BDF00004132968090B4BB2002BAEBF03F160435B
:10BE000001F00F011A4B4FEA4212D2B2AABF03F55A
:10BE100061435A5483F800232B681B0B5AB201214B
:10BE200003F01F0301FA03F35209124941F82230CB
:10BE30002B680422C3F800252C2303FB0673002281
:10BE4000C3E9062283F829205A61012283F82A20B7
:10BE50004046BDE8F8834FF00808F9E74FF01108B5
:10BE6000F6E700BF082D0020B9BB010080000200EA
:10BE700014ED00E000E100E02DE9F843224B0779E2
:10BE80004FF02C0909FB0734064665699846002DDA
:10BE900035D16261A160256284F828504FF48E711B
:10BEA0000068FFF74BFE336801229A602146306834
:10BEB000FFF74CFE6368A1461BBB3568226A6369C5
:10BEC0009A4211D33368D3F81C21002AFBD00122F7
:10BED000DA6000202C2303FB078700237B61BDE889
:10BEE000F88394F8283043B9D5F81C31002BF8D0EA
:10BEF00049462846FFF72AFEE0E70F20EAE711202F
:10BF0000EDE72846EBE700BF082D002008B5094BF8
:10BF10001B7853B10020FEF75DFE0120FEF75AFEAC
:10BF20000320BDE80840FEF755BEBDE80840FEF717
:10BF30005DBE00BF342D0020F8B57B4C237805464C
:10BF40001BB100232370FFF7E1FF172D00F288805B
:10BF5000DFE805F00C17174354657680888D888DCF
:10BF6000959A9A9A9A9AC4C9D1D9E4E4FFF7CEFF78
:10BF70006E48FEF7DDF86E4B002204461A7020462C
:10BF8000F8BD0020FEF70CFEF8B10020FEF722FEFF
:10BF9000022D0CBF4FF4E1614FF47A61644B1D70C8
:10BFA0004FF400404FF4FA740025E0FB01454FF4D4
:10BFB0007A7200232046294602F06CF900220146DD
:10BFC0005A48BDE8F840FEF76DB8FEF7F7FD022DC0
:10BFD0000CBFC8214FF4C871E0E70020FEF7E0FD78
:10BFE00040B10020FEF7F6FD4FF44871504B03229C
:10BFF0001A70D5E7FEF7E2FDC821F7E70020FEF74B
:10C00000CFFD38B10020FEF7E5FD4FF47A61484BD3
:10C010000422EDE7FEF7D2FD4FF4C871F7E70020E8
:10C02000FEF7BEFD48B10020FEF7D4FD404B0522CF
:10C030001A7041F69A110022C2E7FEF7BFFDF5E73C
:10C040000020FEF7F1FD3A4B06221A70002240F65E
:10C05000CD41B5E70020FEF7B1FD354B07221A7040
:10C0600000248CE701202070FEF7DEFDEEE70120C2
:10C070002070FEF7D9FD00224FF48041A0E7FEF7C3
:10C08000C4FD2B4B0C22EAE72A482B4EFEF750F852
:10C09000D5F1110504461CD0D8B9012D13D0C82301
:10C0A0005D434FF400474FF4FA7000214FF47A7269
:10C0B0000023C7FB050102F0EDF8224601461D48AA
:10C0C000FDF7F0FF04460220FEF778FD01233370F0
:10C0D00055E70220FEF77EFD0023F8E7FFF716FF85
:10C0E000134B1222BBE7FFF711FF0020FEF766FD9E
:10C0F0000F4B1322B3E7FFF709FF0120FEF75EFDA8
:10C100000B4B1422ABE7FFF701FF0020FEF756FDB3
:10C110000120FEF753FD064B1522A0E7FEF775FD43
:10C12000034B1D709CE700BF882D0020582D002078
:10C13000892D0020382D0020342D0020044B1B6851
:10C1400013F0010301D0FFF7F7BE1846704700BF98
:10C15000842D0020032813D8012A0BD1012908D1EE
:10C1600000F10E02D2B200EB40000C4B1A5400203A
:10C17000704700220129F6D04BB24BB1022901D001
:10C1800007207047054B00EB400018444270EEE773
:10C19000024900EB400008448270E8E7782D002057
:10C1A00008B5012202210020FFF7D4FF08B10728BB
:10C1B00010D1072202210120FFF7CCFF08B1072888
:10C1C00008D100210A220846FFF7C4FF10B1072852
:10C1D00008BF002008BD000010B50388102B02D056
:10C1E000112B1ED010BD1A4C2168B1B9012208468E
:10C1F000FFF7B0FF08B1072824D107220221012050
:10C20000FFF7A8FF08B107281CD104220221002053
:10C21000FFF7A0FF08B1072814D12368013323607A
:10C22000E0E70B4A1368013B1360002BDAD1FFF7FC
:10C23000B7FF0028D6D0074B1B68002BD2D0BDE833
:10C2400010401847034B1B68002BE6D09847E4E7E3
:10C25000902D00208C2D002076DF70477ADF70470C
:10C260007CDF70477FDF70478FDF7047B1DF70473B
:10C270007047FDF77FBC000013B50388212B0446EF
:10C2800027D015D8112B1ED0132B2AD0102B1ED13E
:10C290000720FFF753FF08B1FDF76CFC194BA1888D
:10C2A0001948198001F0EAFB88B1FDF763FC0EE044
:10C2B000522B1ED0562B01D03B2B08D11321A08826
:10C2C000FFF7CAFFF0E70F4B4FF6FF721A8002B07C
:10C2D00010BD002301A98088ADF80430FFF7C4FF2A
:10C2E000E2E7084800231A4685210088FFF7BAFFD5
:10C2F000DAE7044800231A4619460088FFF7B6FF1C
:10C30000D2E700BF10250020602E002070470000FB
:10C3100008B503784BB9054B3B211888FFF79CFF04
:10C3200018B1BDE80840FDF725BC08BD1025002068
:10C3300030B5037885B00446C3B90D4A0D4D106879
:10C340005168127A01AB03C31A700923ADF80230A9
:10C3500004F114022B882169074801F001FD2B88A4
:10C3600005480DF1020201A901F0FAFC05B030BD4B
:10C370006FEC010010250020142500201FB5CDE929
:10C380000001CDE90223694600220348FEF7ECFED6
:10C3900005B05DF804FB00BF7CEC0100FDF7EABBD3
:10C3A00037B50023ADF800308DF8023006238DF844
:10C3B0000130022301AA19466846204DFFF7DEFF2F
:10C3C000052445F001054FF47A40A847013CFAD115
:10C3D00040F20163ADF80030022301AA1946684615
:10C3E000FFF7CCFF05244FF47A40A847013CFAD16F
:10C3F0004323ADF8003001238DF80230032301AA56
:10C4000019466846FFF7BAFF4123ADF80030022312
:10C410008DF80230032301AA19466846FFF7AEFFE4
:10C420002323ADF80030032301AA194668468DF88E
:10C430000240FFF7A3FF03B030BD00BF60EC010076
:10C4400007B5074B024618681B798DF804300523A1
:10C45000009019466846FFF791FF03B05DF804FBB2
:10C4600034EC0100112807B517D004D800B3032815
:10C4700015D0052308E048F20123984208D048F27D
:10C4800002239842F5D102238DF80430012202E004
:10C4900001228DF8042001A907E00323F4E7042317
:10C4A0008DF8043001220DEB03010348FFF7E4FC93
:10C4B00003B05DF804FB00BF98EC010070B5234B9E
:10C4C000234CB3F80520D3F8070088B00025ADF859
:10C4D0000C201A46DB8932F80B1F06909278ADF8D3
:10C4E000141004268DF81620ADF8103003AA02238C
:10C4F0005721009520460796FFF788F9FFF7B2FF0E
:10C50000334606AA572100952046FFF77FF9FFF72B
:10C51000A9FF05AA0323572100952046FFF776F9C6
:10C52000FFF7A0FF04AA0223572100952046FFF73A
:10C530006DF9FFF797FF334607AA5721009520466C
:10C54000FFF764F9FFF78EFF08B070BD34EC01000F
:10C550008CEC010030B585B00F4D07238DF80C3001
:10C5600001230446009303AA57212846FFF74EF9FA
:10C57000FFF778FF0623224657212846FFF761F987
:10C58000FFF770FF237803F003032370E37803F0D1
:10C590000303E37005B030BD8CEC01001FB501242E
:10C5A000002302AA57218DF80830009423461D4825
:10C5B000FFF72CF9FFF756FF234603AA5721194826
:10C5C000FFF73FF9FFF74EFF9DF80C0010F0400019
:10C5D00024D0042302AA57218DF808300094234662
:10C5E0001048FFF713F9FFF73DFF032303AA572174
:10C5F0000C48FFF726F9FFF735FF9DF80D30DB06F5
:10C600000ED19DF80E309DF80C001A1A002AABBF0F
:10C61000C3F12003C01AC01800F1FF3004B010BDF0
:10C620001F20FBE78CEC010030B5304C304834F86B
:10C63000023B89B0002505AA5721ADF814300095BA
:10C640000223FFF7E3F8FFF70DFF2388ADF818305A
:10C6500006AA0223572100952548FFF7D7F8FFF7D0
:10C6600001FF01238DF80C300124234603AA572132
:10C6700000941F48FFF7CAF8FFF7F4FE234607AA05
:10C6800057211B48FFF7DDF8FFF7ECFE9DF81C5023
:10C69000022DE9D11F2304AA8DF8103000942346FF
:10C6A00057211348FFF7B2F8FFF7DCFE2B4607AA25
:10C6B00057210F48FFF7C5F8FFF7D4FE9DF81C304F
:10C6C0009DF81D400A4804EB0324C023ADF81C303C
:10C6D0000023009307AA2B465721FFF797F8FFF78F
:10C6E000C1FEA4B2204609B030BD00BF44EC010039
:10C6F0008CEC010008B50849084801F0DEF808B1E3
:10C70000FDF738FAF721054801F0E6F818B1BDE861
:10C710000840FDF72FBA08BD0DC301004C2E0020C4
:10C720002DE9F043C9B0FDF77BFC08B1FDF722FA13
:10C7300001F094FB08B1FDF71DFA00231DA90120AB
:10C740001D9301F019FC08B1FDF714FA1DA801F0C2
:10C75000DFFC08B1FDF70EFA11238C488DF8543038
:10C7600001F08EFD894982B215A8FFF779FD08B165
:10C77000FDF700FA082200211DA801F079FD844888
:10C780004FF0C873CDE91D031DA8FFF767FD08B181
:10C79000FDF7F0F9FFF7AEFF7E4B7F481D931DA913
:10C7A00001F05AF908B1FDF7E5F90021042215A8B6
:10C7B00001F05EFD794B7A48159315A901F05AFAFC
:10C7C00008B1FDF7D7F9AC2200211DA801F050FDFA
:10C7D00002238DF874304FF4A063ADF87630012356
:10C7E0004021ADF8C0308DF8F03044F25063CDE90F
:10C7F0003F136C4A6C4B6D4831921DA9469300F073
:10C80000F9FB08B1FDF7B6F90121684800F0EFFB2C
:10C810001C2200211DA801F02BFD00234FF4203223
:10C82000CDE91D32ADF882304FF470228DF884309E
:10C830005F4B1F92229303225E4B8DF880201DA830
:10C84000239300F07FFE08B1FDF794F903215748C8
:10C8500000F042FC08B1FDF78DF902261F23CDE957
:10C8600003634FF0CD63059300231A4603A9524892
:10C87000DFF82C81FEF764FA5048FEF751FF4FF0C5
:10C88000A04300250C22C3F81C57C3F878274C4B53
:10C8900021950FCB07AC84E80F004A4B23604FF083
:10C8A0008053A36001232373062312278DF8903051
:10C8B0004FF0FF33CDE91D73CDE91F332A46424BBC
:10C8C000424823931DA9ADF88850FFF715FA2B466F
:10C8D0002A4621463E48FEF7D7F9FFF761FDFFF7EC
:10C8E000EDFDADF8047013233A4FADF80A60ADF8D2
:10C8F00006302E464FF0A043D3F8104514F08004C4
:10C900002AD106EB860015AB18440136FFF798FDD7
:10C91000062E21D10BAB15AA2046194614781C709F
:10C92000013054785C70062894789C7002F10502FE
:10C9300003F10303F2D13B8801AA404601F010FA4B
:10C94000FFF772FE3B88ADF808000DF10A0202A95C
:10C95000404601F005FA0026FFF720FE002481463C
:10C960004C45C7DA10AB062000FB05300135FFF758
:10C97000F1FD032D07D13B880DF1060210A94046B9
:10C9800001F0EEF900250134EAE700BF66EC010092
:10C9900010003C0073C20100602E002031C3010072
:10C9A000142500200C25002071C20100942D0020C8
:10C9B00011C301009DC3010088EC01008CEC010053
:10C9C00048EC01000405060800E0D70198EC0100DE
:10C9D00078EC0100102500200369C1688B429DBFDF
:10C9E0008268D21802F1FF3203F1FF3394BF501A6C
:10C9F000581A70472DE9F041D0E9027405463E1BF4
:10CA00004068964220448846144404D901F022FC30
:10CA1000EC60BDE8F0813246E41B01F01BFC2246CD
:10CA200008EB06016868F1E72DE9F843C56806469A
:10CA3000894617464FF000083469B3687068A5420C
:10CA400028BFE418013C621B5C1BBC4228BF3C466B
:10CA5000944228BF144649462844224601F0FAFB76
:10CA6000B3682544AB4208BF00253F1BA044A14446
:10CA7000F560E1D14046BDE8F8830000F8B5184CF8
:10CA8000182300FB033503FB00402544C46A012C36
:10CA90000F46164611D024B1022C1BD0002420468C
:10CAA000F8BD2846FFF798FFB042F8D33246394622
:10CAB0002846FFF79FFF3446F1E72846FFF78CFF33
:10CAC0008642344628BF0446224639462846FFF7A8
:10CAD00091FFE4E72846BDE8F840FFF7A5BF00BF97
:10CAE0004C2F00206DDF704779DF70477DDF704786
:10CAF00064DF70472DE9F74F0C9CBDF834B02788F0
:10CB0000002580468A4691462E46B8F80020B2425B
:10CB10000BDC35B12288013AD21B92B2FF2A39D8F8
:10CB2000DA55002003B0BDE8F08FD8F8042052F8A1
:10CB30002600019000220DF1030101A8FFF7D8FFA4
:10CB40000028EFD19DF803204A4521D12288002DED
:10CB500014BF0020022002EB09010144594519DCF1
:10CB60003DB9013292B2228003F802A0228801323C
:10CB7000228022880DF103011A4401A8FFF7B8FFB3
:10CB80000028CFD121889DF803200A442280012566
:10CB90000136BAE70C20C5E72DE9F341089CBDF842
:10CBA00024501746CDE9004502220646FFF7A2FFB2
:10CBB00048B9102239463046CDE9084502B0BDE8F3
:10CBC000F041FFF797BF02B0BDE8F0812DE9F04FCB
:10CBD00000231688138090F82D3085B007460D4647
:10CBE000144653B3082E01D80C2028E102A8FFF701
:10CBF00079FF002840F0238113880822CA54238833
:10CC000001339BB21B222380CA542088013080B29A
:10CC1000208006220DF10901284401F01BFB238826
:10CC20009DF8082006339BB212F0FE0218BF0122C5
:10CC30002380EA54238801332380BB78FBB1238807
:10CC40000433B342D0D802A8FFF74EFF002840F0CB
:10CC5000F68023880322EA54238801339BB21922E9
:10CC60002380EA542388BDF8082001339BB2E918D9
:10CC70002380EA54120A4A70238802332380FA7808
:10CC80009AB12388D91CB142AED80221E954238835
:10CC900001339BB201212380E95423880B449BB2CA
:10CCA0002380EA5423880B4423807A68AAB123881E
:10CCB000D91CB14298D8022192F90020E954238866
:10CCC00001339BB20A212380E954238801339BB2AC
:10CCD0002380EA542388013323803B89002B40F0D2
:10CCE000A2803B8A5BB1CDE900462B460722032197
:10CCF00007F11000FFF750FF002840F0A0803B8BA9
:10CD00005BB1CDE900462B461522142107F118002E
:10CD1000FFF742FF002840F092803A6A002A40F074
:10CD20009180D7F82480B8F1000F30D0B8F80430E3
:10CD30002188981C8A1C0244B2423FF655AFFE2857
:10CD40003FF652AF03336B54238801339BB2FF226B
:10CD50002380EA54238801339BB22380B8F8002053
:10CD6000EA54E918120A4A702088023080B2208002
:10CD7000B8F804205AB1D8F8081000296CD028441B
:10CD800001F068FA2388B8F804201344238097F848
:10CD90002C30002B40F09B80387800284FD03B8807
:10CDA000012B59D0228802F1020CB4453FF61CAF8A
:10CDB000012805D17B78023313449E42FFF414AF5F
:10CDC000023EB61AB6B202A905EB0C00ADF8086037
:10CDD000FFF78CFE98BB3978BDF80820022900F0D7
:10CDE000BB807B78934202D3B24240F2B3800129E8
:10CDF00040F0B4809BB29E42C0F0B080ADF80830E5
:10CE00000821BDF80830FE2B3FF6EEAE2288013334
:10CE1000AB542288013292B22280A9542288134452
:10CE2000238000200BE0CDE900462B46062202219C
:10CE300007F10800FFF7B0FE00283FF452AF05B03D
:10CE4000BDE8F08FB4F800C00CF10603B3423FF622
:10CE5000CBAE1188052901D80720F0E76FF4486EA2
:10CE600001EB0E039BB24FF27D3E7345F4D953881C
:10CE7000052BF1D96FF44860181880B27045EBD9D2
:10CE80004FF6FF70814203D0834201D09942E3D82C
:10CE9000052305F80C30238801339BB2122123802F
:10CEA000E954238801339BB223801188E954E818A0
:10CEB000090A4170238802339BB223805288EA54C6
:10CEC000E918120A4A7023880233238029E7BB6AD3
:10CED000002BC1D04FF000094FF00C0A4FF0160B99
:10CEE00097F82C305FFA89F293427FF655AFB96A12
:10CEF0000AFB02F201EB0208B8F80430981CFE2885
:10CF00003FF672AE208803332B54238801339BB243
:10CF1000238005F803B0238801339BB223808A5A0B
:10CF2000EA54E918120A4A702088023080B2208040
:10CF3000B8F804205AB1D8F8081000298CD0284439
:10CF400001F088F92388B8F804201344238009F1FC
:10CF50000109C5E7092154E7B242FBD9ADF80860E1
:10CF60004EE770B5C0B14AB116880024B44203D36D
:10CF700005196D789D4208D0A14201D800200BE030
:10CF8000055D01352C44A4B2F0E7A142F6D9A31CFB
:10CF90001380005D013880B270BD13B50023ADF879
:10CFA000063013460DF106020446FFF7DAFF10B112
:10CFB000BDF80600204402B010BD72DF704773DF79
:10CFC000704738B5012204460D46B0F89810D0F8E5
:10CFD0009400FFF7E2FF00B1057004F13C0204F198
:10CFE000940104F15400BDE83840FFF7E6BF80F833
:10CFF00030107047F8B504460F46002968D0002865
:10D0000066D091F87A301BB191F89830002B61D13D
:10D01000D7F8A030042B5DD0D7F89C30042B59D022
:10D020004FF0000C84F802C007F178060FCE251DE2
:10D030000FC50FCE0FC596E8070085E8070084F8F6
:10D0400030C0D7F8A4306363D7F8A830A3634FF695
:10D05000FF7504F19403C4F8A430A4F8A850072283
:10D06000614604F1AA0001F003F923780BB984F8B2
:10D070005450224604F155011F25C4F89410384637
:10D0800022F8985FFFF7A2FD08BB224604F1740165
:10D09000C4F89C1007F13C0022F8A05FFFF796FD52
:10D0A000A8B9A369A4F848304FF480720123A4F80A
:10D0B0005020626920646264014684F83C3004F1C7
:10D0C0003C0204F15400FFF778FF00B92370F8BD6B
:10D0D0000E20FCE70720FAE7F8B5077804460D466E
:10D0E000002F00F0F98000F1AA06A17007220021AC
:10D0F000304601F0BDF8E38813B1A378012B04D0CA
:10D10000E3794BB1A378022B06D1636BA3B1012263
:10D1100084F8B12008209847334604F1B00113F891
:10D12000012F12B98B42FAD117466B1E032B52D82E
:10D13000DFE803F0050B0F1284F8B130ECE7A379B8
:10D140001BB194F8243003B95FB9E3790BB1002F18
:10D1500043D1237A002B42D1637A002B0CBF0025E8
:10D160000425636BA570002B3BD0033D012D38D8FF
:10D170006279002A35D094F8B22092BB84F8B420AA
:10D18000012284F8B3200720984704F13C051822B7
:10D190000021284601F06CF8E36A591E0122022999
:10D1A00028BF134684F8513094F8243084F83C208A
:10D1B00033B1914296BFA36A84F8522084F852306A
:10D1C000A278002384F85030042A1BD8DFE802F04C
:10D1D0006C0D223252000025C3E70225C1E703256A
:10D1E000BFE7002384F8B330CFE7C4F8A430C4E924
:10D1F00010630223012284F83C30802384F831201C
:10D20000A4F84830A378002B51D1636B002B5FD179
:10D2100000205CE0022384F83130032384F83C30A2
:10D220002369A4F848300023C4F8A430E3682664D6
:10D230006364E7E763696364A369A4F848306379CA
:10D24000B3B194F8B2309BB994F8B43083B10223EF
:10D2500084F8503004212046FFF7B3FE0028D1D1D6
:10D26000052384F8313004F19403C4F8A430C9E7ED
:10D270000323F6E7E3696364236AA4F8483063791B
:10D2800083B194F8B2306BB994F8B43053B102233F
:10D2900084F8503004212046FFF793FE0028B1D1D6
:10D2A0000623DEE70423DCE784F83130AAE72A46C8
:10D2B000D4F8A41004F15400FFF77FFE38B994F8B5
:10D2C000301094F85400FFF77AFE00289DD0F8BD86
:10D2D00094F8310098479BE70820F8E710B50388D9
:10D2E000112B0C460AD0262B1FD0102B05D1C37B47
:10D2F000012B02D18388A1F8A83010BD002381F84A
:10D30000B2308288B1F8A8309A42F6D10B79002B5E
:10D31000F3D101212046FFF7DFFE0028EDD0A36BFB
:10D32000002BEAD0BDE810401847037A013B012BDF
:10D33000E3D8897805230131B1FBF3F303EB8303D1
:10D34000C91AC9B2E6E7704775DF704776DF7047E4
:10D350007ADF70477BDF7047034B1A8882420CBF2D
:10D3600018460020704700BF882E0020024B9B69A2
:10D3700003B11847704700BF6C2E002037B585B247
:10D380002846FFF7E9FF034670B1164C017A227B6D
:10D3900091420BD200F10A012846FFF7D5FFE8B110
:10D3A000112801D0FFF7E2FF03B030BD237C00223B
:10D3B000027243B13B212846FFF7C8FF30F0080353
:10D3C00001D0FFF7D3FF6369002BEDD000228DF869
:10D3D0000420ADF8065001A89847E5E71A7A013213
:10D3E0001A72E1E76C2E002013B50B46497A0F4CF8
:10D3F000024669B9D4E901101C7A002C18BF014615
:10D400005868FCF74FFE08B1FFF7B0FF02B010BD3F
:10D41000002119726369002BF8D00121ADF80600D4
:10D420008DF8041001A89847F0E700BF6C2E00208B
:10D430004B8802889A4213D842889A4210D3808837
:10D440008A8840F2F313984294BF031AC31A934296
:10D4500006D800F2F310904234BF0020012070473C
:10D460000020704770B50388112B014648D002D8C0
:10D47000102B1ED070BD122B52D0502BFAD12F4B37
:10D48000C288DB899A42F5D1038A022BF2D18688C1
:10D490003046FFF761FF05460028EBD001F112008E
:10D4A00000F05BF930BB6868FCF742FE0028E1D071
:10D4B00009E0C37B012BDDD14FF6FF70FFF74CFF76
:10D4C000054620B90420BDE87040FFF74FBF8E88A5
:10D4D0001B4A0680002303721368C5F80A300A301D
:10D4E000536843601031FFF7A3FF144B6872DB8968
:10D4F000002BBFD129463046BDE87040FFF774BF0E
:10D500008088FFF729FF04460028B3D04068FCF765
:10D510000FFE08B1FFF72AFF4FF6FF732380A9E73C
:10D5200086883046FFF718FF05460028A2D008314C
:10D530000A30FFF77DFF6872DCE700BF6C2E002029
:10D540009C2E0020F8B5064648B305460FCD154F72
:10D550003C460FC495E8070084E807003068124B8A
:10D560003B60B0B1FFF7F4FEC0B931680A681A60D9
:10D570004A685A600D480E4A4FF6FF7303800D4B00
:10D5800040F8043F0021FCF77BFD002818BF032072
:10D5900004E01846FFF7DEFE0028EBD0F8BD0E20B1
:10D5A000FCE700BF6C2E00209C2E0020882E00205F
:10D5B0007DD30100A42E002073B50191019C064685
:10D5C0006CB100252C46294601A8FCF70EFE18B1C7
:10D5D00006EB440301349D800135142DF3D1304610
:10D5E000346002B070BD00002DE9F04703888488E4
:10D5F000112B8CB006463CD01A2B3FD0102B17D1E4
:10D60000274DAB68DB43009369686846FCF716FE5C
:10D61000009901A8FFF7D0FF0DF108094FF00008AD
:10D62000019B984507D3132C13D90420FCF7A2FAC9
:10D630000CB0BDE8F08739F802AB0027013751463E
:10D6400005EB8700FCF7C7FD1D2FF7D108F1010896
:10D65000E6E721461348FCF7B5FD21461248FCF7E2
:10D66000B1FDF37B012BE3D010482146FCF7AAFD66
:10D67000DEE70C482146FCF7AEFDD9E7057A0C48F9
:10D680002D09012D214606D9FCF79CFD022D2146CE
:10D690000848F0D0EAE7FCF79EFD21460548EAE796
:10D6A000C42E0020CC2E0020C82E0020D02E00201A
:10D6B000D42E0020D82E00201328014602D802487C
:10D6C000FCF793BD00207047C82E002010B504461B
:10D6D000FFF7F2FF002814BF2046142010BD70B5DC
:10D6E000054616460AB90E2070BD002313600028B7
:10D6F000F9D00368002BF6D0C38813F003040FD1D0
:10D700000846FFF7E3FFC0B214280BD02B79834201
:10D710000AD9EB882A6800FB032333602046E3E73D
:10D720000720E1E70520DFE70420DDE7AADF7047F7
:10D73000002301380B70042806D8DFE800F0030648
:10D74000080A0C0011230B7070472123FBE73123DB
:10D75000F9E71223F7E72223F5E7007800F001004C
:10D760007047F0B58B7891B0002B0C4608BF0123B1
:10D770008DF80E3005460B88ADF80C3000211646AA
:10D780006846032200F074FD6946607CFFF7D0FF15
:10D790000DF10101A07CFFF7CBFF9DF80230E27B89
:10D7A00062F3C303227C62F30413227B62F300035F
:10D7B000227D002A14BF0222012262F342030021CB
:10D7C0001C2209A88DF8023000F052FD637B13F093
:10D7D000300F15D002AF03220021384600F048FD7B
:10D7E0000DF10901E07CFFF7A3FF11238DF808304C
:10D7F0009DF80A300E97012262F342038DF80A3039
:10D80000637B8DF824301422A37B8DF82530002112
:10D8100004A800F02DFD03AB0493A388ADF81C30E1
:10D82000A368CDF814D01BB1E288ADF81820089396
:10D83000A369002B32D001AF03220021384600F04B
:10D8400017FDA3691A88ADF82C205A88ADF82E2050
:10D850005A680D97187B0A923946FFF769FFA3694A
:10D860000DF10501587BFFF763FFA2699DF80630B3
:10D87000917A61F3C3038DF80630D17A61F3041312
:10D880008DF80630117A927B002A61F3000314BFF1
:10D890000222012262F342038DF80630E36903B1EC
:10D8A0000C93334604AA09A92846FFF73FFF11B09D
:10D8B000F0BDA5DF7047B5DF704758B14FF0F713E3
:10D8C0000360FB230371F723C3801723C1608360C8
:10D8D000002070470E20704730B1A1F11703E02BF4
:10D8E00004D80180002070470E2070470720704741
:10D8F00013B5034680880C4680B91A88112A60D077
:10D900000ED8102A3AD0A37A43B1E1880020FFF75D
:10D91000D0FF002872D14FF48073638102B010BD34
:10D920003A2A53D0552AEED1DB88C988A072172B2A
:10D9300038BF17238B4228BF0B462381FFF7BBFF5D
:10D9400060B1FCF787FF354A354B36499B1ADB0837
:10D950001B04024643F00100FBF7C6FFE37A002BED
:10D96000D1D1E368002BCED040F6772200922289F5
:10D97000ADF80420694620469847C4E7DB7B012BBD
:10D9800004BF0B88CB80C98823898B42BBD200207F
:10D99000FFF78FFF10B90123E372B4E7112802D11A
:10D9A0000123A372AFE7FCF755FF1C4A1C4B1E492D
:10D9B0009B1ADB081B04024643F00100FBF794FFAF
:10D9C000A1E7F723CB8017238B609CE75B89CA888C
:10D9D000934228BF1346172BCA6838BF17230B8101
:10D9E0004AB1C97A39B140F677210091ADF80430D7
:10D9F0006946204690470023638184E711288DD033
:10DA0000FCF728FF054A064B07499B1ADB081B0455
:10DA1000024643F00100FBF767FF7FE780F101005A
:10DA2000D0F10100D1EC0100A0EC0100B0DF7047A3
:10DA300066DF704710B5034600214088FFF7F8FF06
:10DA4000024608B91A7210BD112801D10122F9E766
:10DA50005B68BDE81040184760B159B10378DE2B10
:10DA60000AD00B684360DE2303704FF6FF734380D8
:10DA7000002070470E2070470820704728B10378B7
:10DA8000DE2B04D14180002070470E207047082013
:10DA90007047F0B5054685B00C46F1B1E8B10B789A
:10DAA000DE2B1AD182884B889A4204D10B7A13B1AB
:10DAB0000846FFF7BFFF2B88112B32D0512B0ED019
:10DAC000012B0AD12B7A012B07D1A98862889142B8
:10DAD00003D123722046FFF7ADFF05B0F0BDAE883D
:10DAE0006388B342F9D1AF79022FF6D1AD7B2B1FFA
:10DAF000022BF2D800211022684600F0B9FB052D58
:10DB000014BF4FF4C0730023694630468DF800708F
:10DB1000ADF80430FFF78AFF0028DED0636898472D
:10DB2000DBE76388AA889A4204BF4FF6FF736380DD
:10DB3000D3E7A8DF7047ADDF7047AEDF704762DF25
:10DB4000704770B505468AB00C46002962D000289F
:10DB500060D00388502B37D0572B72D0102B59D15F
:10DB600081886069002601AA0196FFF7B8FD0822A6
:10DB700031460DEB020000F07BFB022302AA218A52
:10DB8000A888CDF80CD00293FFF7D5FF002841D12B
:10DB9000A369002B3ED00398FFF7DFFD002839D0A2
:10DBA000019B0BB101221A701822002104A800F079
:10DBB0005FFB02238DF81030AB88ADF81830019B65
:10DBC00005940793A36923E08188606902AAFFF79F
:10DBD00086FD1822002104A800F04AFBAB88ADF8AE
:10DBE00018302189EB88029A05949942079218D13E
:10DBF0002E8A022E15D16AB105F11200FFF7ADFD94
:10DC0000029B48B101221A708DF81060A3690BB114
:10DC100004A898470AB070BD187003238DF810301F
:10DC2000F4E7A2899A42F5D1A369002BF2D0002231
:10DC30008DF8102005F1120208922A8AADF82420EE
:10DC4000E6E78188606902AAFFF749FD01460028DE
:10DC5000E0D1029B1B78002BDCD0182204A800F036
:10DC600007FB01238DF81030AB88ADF81830059410
:10DC7000029BA6E7F0B5384B8FB002AA04460E46C9
:10DC800003F1100C174618685968154603C5083388
:10DC900063452A46F7D1002C5BD0002E59D033685B
:10DCA000A36121463846FFF74AFF00284FD122469C
:10DCB000012512F8023B8DF8063001A92846ADF87F
:10DCC0000450FFF736FF002841D10146202206A864
:10DCD00000F0CEFA22460223ADF8183012F80C3BC1
:10DCE0008DF81A30BDF824301C4E6088079603F476
:10DCF000734343F440632B4306A9ADF824308DF8F9
:10DD000029508DF82A50FFF72CFD00BB0146202238
:10DD100006A800F0ADFA22460323ADF8183012F839
:10DD2000043B8DF81A30BDF824306088079603F460
:10DD30006F4343F480532B43ADF8243006A940F2DF
:10DD400001138DF82950ADF82A30FFF70AFD0FB006
:10DD5000F0BD0E20FBE700BF0DED0100F400010057
:10DD6000F0B50F4687B016461C46054618B301AA03
:10DD700019464069FFF7B3FCD8B94FF6FF739C42D0
:10DD80001BD0019BCBB11B78CBB13388F42B18D8B7
:10DD90000146102202A800F06BFAAB88ADF80830FB
:10DDA00002A901232046CDE904678DF80A30FFF768
:10DDB000C4FE07B0F0BD0E20FBE70520F9E7082000
:10DDC000F7E70720F5E710DF7047000013B50446BA
:10DDD00009496846FCF70BFD019808B902B010BD6F
:10DDE000D0E900312046984718B16846FCF708FD95
:10DDF000F2E71120F2E700BF2CED010013B5044655
:10DE000007496846FCF7F3FC019B0BB902B010BD53
:10DE10002046D3E9002190476846FCF7F1FCF3E780
:10DE200044ED01000B4991F816335A09EC231341D4
:10DE3000DB0706D5084B9A683AB94FF480030B60AC
:10DE4000704742F20200FBF795BE1A6842F4800266
:10DE50001A60704700E100E0402F0020F7B5194F2D
:10DE60003C7864BB184E012520463570FFF7AEFFA5
:10DE7000112821D02046FFF7C1FF144B8DF8034035
:10DE8000186801900DF10300FCF762F9104901A830
:10DE9000FFF799FF0446B0FA80F0400938709DF80A
:10DEA0000300FCF779F93CB90A4B34701C70FFF79A
:10DEB000B9FF2846FFF7A2FF204603B0F0BD0824B3
:10DEC000FAE700BF3D2F00203C2F002025ED010088
:10DED000919B01003E2F0020014B1878704700BF36
:10DEE0003D2F002007B508496846FCF780FC019BE0
:10DEF00013B903B05DF804FBD3E9002090476846EE
:10DF0000FCF77EFCF3E700BF38ED0100FFF7EABF46
:10DF100060DF704769DF704761DF704730B5114DD2
:10DF2000ADF5017D4FF4FA740DF1020103A8ADF8CF
:10DF30000240FFF7F1FF70B9294601A8FCF757FC32
:10DF4000029B002BF0D003A8D3E90021904701A841
:10DF5000FCF756FCF4E7052801D0FBF70BFE0DF5A6
:10DF6000017D30BDC8EF0100024B1B780BB1FFF7FC
:10DF7000D5BF70473F2F002030B5054685B00C4611
:10DF8000002900F0B080594B0B600C22002101A841
:10DF900000F06EF901238DF8063022688DF80450E8
:10DFA000062301A92020ADF80830FFF7B3FF60B1C8
:10DFB000FCF750FC4E4A4F4B4F499B1ADB081B04A1
:10DFC000024643F00100FBF78FFC0C22002101A860
:10DFD00000F04EF9012322688DF8053001A9402098
:10DFE000FFF798FF60B1FCF735FC414A414B4349CC
:10DFF0009B1ADB081B04024643F00100FBF774FC8C
:10E000000C22002101A800F033F9F72322688DF8D3
:10E01000045001A92320ADF80630FFF77BFF60B163
:10E02000FCF718FC324A334B35499B1ADB081B04BA
:10E03000024643F00100FBF757FC0C22002101A827
:10E0400000F016F9012022688DF8040001A9FFF7FD
:10E0500061FF60B1FCF7FEFB254A264B29499B1A5C
:10E06000DB081B04024643F00100FBF73DFC0C22D9
:10E07000002101A800F0FCF84FF4B063226801937E
:10E0800001A9A120FFF746FF60B1FCF7E3FB184AA6
:10E09000184B1D499B1ADB081B04024643F0010084
:10E0A000FBF722FC0C22002101A800F0E1F89DF80A
:10E0B000043022686FF3000301A9A0208DF804301A
:10E0C000FFF728FF68B1FCF7C5FB094A094B0F4968
:10E0D0009B1ADB081B04024643F00100FBF704FC1B
:10E0E000002005B030BD0E20FBE700BF002500205A
:10E0F00080F10100E0F1010058ED01009EED01000A
:10E10000EAED010031EE01007DEE0100CEEE0100EE
:10E11000F8B506460768FFF7FBFE3368BB420546C5
:10E120001DD9194B194C1A49E41AE408240444F087
:10E1300002042046FBF7D4FB336816493A462046D2
:10E14000FBF7DBFB4FF080533268D3F80C311249F8
:10E150009B0203F100539A1A2046FBF7C5FB25B931
:10E160000E4B01221A702846F8BD2846FCF772FBB8
:10E17000054A064B0A499B1ADB081B04024643F07A
:10E180000100FBF7B1FBEEE780F10100E0F10100D7
:10E1900021EF010050EF010081EF01003F2F00202F
:10E1A000ABEF01004BDF70471FB50D4C01A8FFF727
:10E1B000F9FF70B9214602A8FCF719FB039B002B5D
:10E1C000F4D00198D3E90021904702A8FCF718FB8E
:10E1D000F4E7052801D0FBF7CDFC04B010BD00BF6B
:10E1E000E0EF010008B5074B044613B10021AFF37F
:10E1F0000080054B1868836A03B19847204600F0F9
:10E2000047F800BF00000000FCF0010070B50D4DA4
:10E210000D4C641BA4100026A64209D10B4D0C4CDA
:10E2200000F0BAF9641BA4100026A64205D170BD07
:10E2300055F8043B98470136EEE755F8043B9847FC
:10E240000136F2E798250020982500209825002027
:10E250009C2500200A44914200F1FF3300D1704711
:10E2600010B511F8014B03F8014F9142F9D110BDDF
:10E2700002440346934200D1704703F8011BF9E7BB
:10E28000034613F8012B002AFBD1181A01387047F6
:10E29000FEE700BF53B94AB9002908BF00281CBFD8
:10E2A0004FF0FF314FF0FF3000F074B9ADF1080CC2
:10E2B0006DE904CE00F006F8DDF804E0DDE90223A4
:10E2C00004B070472DE9F047089E04468846002BAD
:10E2D00040F085808A42154648D9B2FA82F24AB1A6
:10E2E000C2F1200701FA02F320FA07F7954047EA46
:10E2F000030894404FEA154E230CB8FBFEF71FFAB3
:10E3000085FC0EFB178843EA084307FB0CF1994292
:10E3100009D9EB1807F1FF3080F0E380994240F211
:10E32000E080023F2B445B1AA4B2B3FBFEF00EFB6D
:10E33000103344EA034400FB0CFCA44509D92C1912
:10E3400000F1FF3380F0CB80A44540F2C880023852
:10E350002C4440EA0740A4EB0C0400271EB1D44033
:10E360000023C6E900433946BDE8F087002A53D0B0
:10E37000B2FA82F2002A40F0B680491B4FEA154EED
:10E380001FFA85F80127B1FBFEFC230C0EFB1C11C4
:10E3900043EA014308FB0CF1994207D9EB180CF151
:10E3A000FF3002D2994200F2EC808446591AA3B29F
:10E3B000B1FBFEF00EFB101443EA044408FB00F826
:10E3C000A04507D92C1900F1FF3302D2A04500F275
:10E3D000DC801846A4EB080440EA0C40BEE78B4200
:10E3E00008D9002E78D00027C6E900013846394602
:10E3F000BDE8F087B3FA83F77FB98B4202D382423C
:10E4000000F2BD80841A61EB030301209846002EC0
:10E41000A9D0C6E90048A6E7FFDEC7F12005BB404A
:10E4200022FA05FC4CEA030C01FA07F420FA05F87D
:10E4300021FA05F34FEA1C4E48EA0404B3FBFEF947
:10E44000210C0EFB19331FFA8CF841EA034309FB38
:10E4500008FA9A4502FA07F200FA07F10BD91CEB09
:10E46000030309F1FF3080F088809A4540F28580EF
:10E47000A9F102096344A3EB0A03A4B2B3FBFEF0C3
:10E480000EFB103344EA034400FB08F8A04508D90A
:10E490001CEB040400F1FF336BD2A04569D90238AC
:10E4A000644440EA0940A4EB0804A0FB02894C45FF
:10E4B000C6464B4654D351D0002E69D0B1EB0E0264
:10E4C00064EB030404FA05F522FA07F3FC401D434C
:10E4D000C6E90054002746E73746304643E718466A
:10E4E00037E707461FE7C2F1200320FA03F79540FC
:10E4F00001FA02F021FA03F34FEA154E3843010CFA
:10E50000B3FBFEF71FFA85F80EFB173341EA034110
:10E5100007FB08F38B4204FA02F407D9691807F1E4
:10E52000FF3C28D28B4226D9023F2944CB1A81B224
:10E53000B3FBFEF00EFB103341EA034100FB08F38E
:10E540008B4207D9691800F1FF3C10D28B420ED9DB
:10E5500002382944C91A40EA074714E74145ABD2BB
:10E56000B8EB020E69EB0C0201381346A4E76046D3
:10E57000F0E7184695E76746D8E781467BE73846D7
:10E5800045E7ACF1020C2B4410E702382C4421E79C
:10E590003746E8E6704700BFF8B500BFF8BC08BCD6
:10E5A0009E467047F8B500BFF8BC08BC9E46704751
:10E5B0000338FDD870470000F59201006193010017
:10E5C000F19201007274745F6C6F675F6261636BDC
:10E5D000656E64004261636B656E647320666C7582
:10E5E0007368656400617070000000001FE6010040
:10E5F00068E6010027E6010070E6010078E6010008
:10E6000080E6010088E6010090E6010098E601003E
:10E61000202530327800202020007C002563001B5C
:10E620005B306D002573001B5B313B33316D002582
:10E63000734C6F67732064726F7070656420282557
:10E64000642925730D0A003C25733E2025733A206A
:10E650000000000000000000B9E60100A0E6010093
:10E66000A8E60100ADE601001B5B313B33306D00D5
:10E670001B5B313B33326D001B5B313B33336D0031
:10E680001B5B313B33346D001B5B313B33356D001D
:10E690001B5B313B33366D001B5B313B33376D0009
:10E6A0007761726E696E6700696E666F006465629D
:10E6B000756700466174616C206572726F720053F9
:10E6C000797374656D2072657365740000000000D5
:10E6D0000338FDD870473031323334353637383966
:10E6E0004142434445467077725F6D676D740055D3
:10E6F0006E6B6E6F776E206572726F7220636F64DF
:10E7000065000000000000002CE80100010000008E
:10E7100038E801000200000056E801000300000094
:10E7200077E80100040000008AE80100050000000D
:10E730009BE8010006000000AFE8010007000000B0
:10E74000C7E8010008000000DFE801000900000040
:10E75000F7E801000A00000010E901000B000000CA
:10E7600028E901000C0000003FE901000D00000055
:10E7700053E901000E00000065E901000F000000F0
:10E7800074E901001000000088E901001100000098
:10E790009FE9010012000000AEE901001300000033
:10E7A000C3E9010080000000D7E9010081000000FA
:10E7B000F8E901008200000014EA01008300000073
:10E7C00030EA0100840000004EEA010085000000EC
:10E7D0006FEA01008600000094EA0100900000004A
:10E7E000ABEA010091000000C9EA010092000000BC
:10E7F000E7EA010000820000FCEA0100018200005B
:10E800001AEB01000282000036EB010000840000D8
:10E8100052EB01000184000076EB0100028400004D
:10E82000A0EB010003840000C5EB01004E52465FDF
:10E8300053554343455353004E52465F4552524F42
:10E84000525F5356435F48414E444C45525F4D49D9
:10E850005353494E47004E52465F4552524F525F06
:10E86000534F46544445564943455F4E4F545F45C8
:10E870004E41424C4544004E52465F4552524F5223
:10E880005F494E5445524E414C004E52465F4552F0
:10E89000524F525F4E4F5F4D454D004E52465F45C1
:10E8A00052524F525F4E4F545F464F554E44004EAA
:10E8B00052465F4552524F525F4E4F545F53555030
:10E8C000504F52544544004E52465F4552524F52AB
:10E8D0005F494E56414C49445F504152414D004EB4
:10E8E00052465F4552524F525F494E56414C494441
:10E8F0005F5354415445004E52465F4552524F5269
:10E900005F494E56414C49445F4C454E4754480080
:10E910004E52465F4552524F525F494E56414C4906
:10E92000445F464C414753004E52465F4552524F5A
:10E93000525F494E56414C49445F44415441004E58
:10E9400052465F4552524F525F444154415F5349D2
:10E950005A45004E52465F4552524F525F54494D00
:10E96000454F5554004E52465F4552524F525F4EEE
:10E97000554C4C004E52465F4552524F525F464FE7
:10E980005242494444454E004E52465F4552524F12
:10E99000525F494E56414C49445F41444452004EF7
:10E9A00052465F4552524F525F42555359004E52A4
:10E9B000465F4552524F525F434F4E4E5F434F5555
:10E9C0004E54004E52465F4552524F525F5245538D
:10E9D0004F5552434553004E52465F4552524F5297
:10E9E0005F4D4F44554C455F4E4F545F494E49541F
:10E9F00049414C495A4544004E52465F4552524F98
:10EA0000525F4D555445585F494E49545F46414900
:10EA10004C4544004E52465F4552524F525F4D5551
:10EA20005445585F4C4F434B5F4641494C45440069
:10EA30004E52465F4552524F525F4D555445585FB6
:10EA4000554E4C4F434B5F4641494C4544004E5256
:10EA5000465F4552524F525F4D555445585F434FA4
:10EA60004E445F494E49545F4641494C4544004E2F
:10EA700052465F4552524F525F4D4F44554C455F91
:10EA8000414C52454144595F494E495449414C49D2
:10EA90005A4544004E52465F4552524F525F5354BE
:10EAA0004F524147455F46554C4C004E52465F45DC
:10EAB00052524F525F4150495F4E4F545F494D5043
:10EAC0004C454D454E544544004E52465F455252CA
:10EAD0004F525F464541545552455F4E4F545F4536
